{
  "contractName": "Notepad",
  "abi": [
    {
      "constant": true,
      "inputs": [
        {
          "internalType": "bytes32",
          "name": "",
          "type": "bytes32"
        }
      ],
      "name": "accounts",
      "outputs": [
        {
          "internalType": "uint256",
          "name": "numberOfNotes",
          "type": "uint256"
        },
        {
          "internalType": "bool",
          "name": "exists",
          "type": "bool"
        }
      ],
      "payable": false,
      "stateMutability": "view",
      "type": "function"
    },
    {
      "constant": true,
      "inputs": [
        {
          "internalType": "bytes32",
          "name": "id",
          "type": "bytes32"
        }
      ],
      "name": "fetch",
      "outputs": [
        {
          "internalType": "string[]",
          "name": "",
          "type": "string[]"
        }
      ],
      "payable": false,
      "stateMutability": "view",
      "type": "function"
    },
    {
      "constant": false,
      "inputs": [
        {
          "internalType": "bytes32",
          "name": "id",
          "type": "bytes32"
        },
        {
          "internalType": "string[]",
          "name": "title",
          "type": "string[]"
        },
        {
          "internalType": "string[]",
          "name": "content",
          "type": "string[]"
        },
        {
          "internalType": "string[]",
          "name": "colour",
          "type": "string[]"
        }
      ],
      "name": "update",
      "outputs": [],
      "payable": false,
      "stateMutability": "nonpayable",
      "type": "function"
    }
  ],
  "bytecode": "0x608060405234801561001057600080fd5b50610a59806100206000396000f3fe608060405234801561001057600080fd5b50600436106100415760003560e01c8063b61771e514610046578063bc529c4314610076578063e3a08aea146100a7575b600080fd5b610060600480360361005b91908101906106b7565b6100c3565b60405161006d919061086b565b60405180910390f35b610090600480360361008b91908101906106b7565b6103f2565b60405161009e92919061088d565b60405180910390f35b6100c160048036036100bc91908101906106e0565b610423565b005b6060806003600080858152602001908152602001600020600001540260405190808252806020026020018201604052801561011257816020015b60608152602001906001900390816100fd5790505b509050600080905060008090505b600080868152602001908152602001600020600001548110156103e75760008086815260200190815260200160002060010160008281526020019081526020016000206000018054600181600116156101000203166002900480601f0160208091040260200160405190810160405280929190818152602001828054600181600116156101000203166002900480156101fa5780601f106101cf576101008083540402835291602001916101fa565b820191906000526020600020905b8154815290600101906020018083116101dd57829003601f168201915b505050505083838151811061020b57fe5b602002602001018190525060018201915060008086815260200190815260200160002060010160008281526020019081526020016000206001018054600181600116156101000203166002900480601f0160208091040260200160405190810160405280929190818152602001828054600181600116156101000203166002900480156102d95780601f106102ae576101008083540402835291602001916102d9565b820191906000526020600020905b8154815290600101906020018083116102bc57829003601f168201915b50505050508383815181106102ea57fe5b602002602001018190525060018201915060008086815260200190815260200160002060010160008281526020019081526020016000206002018054600181600116156101000203166002900480601f0160208091040260200160405190810160405280929190818152602001828054600181600116156101000203166002900480156103b85780601f1061038d576101008083540402835291602001916103b8565b820191906000526020600020905b81548152906001019060200180831161039b57829003601f168201915b50505050508383815181106103c957fe5b60200260200101819052506001820191508080600101915050610120565b508192505050919050565b60006020528060005260406000206000915090508060000154908060020160009054906101000a900460ff16905082565b60008090505b835181101561051357604051806060016040528085838151811061044957fe5b6020026020010151815260200184838151811061046257fe5b6020026020010151815260200183838151811061047b57fe5b6020026020010151815250600080878152602001908152602001600020600101600083815260200190815260200160002060008201518160000190805190602001906104c8929190610535565b5060208201518160010190805190602001906104e5929190610535565b506040820151816002019080519060200190610502929190610535565b509050508080600101915050610429565b5082516000808681526020019081526020016000206000018190555050505050565b828054600181600116156101000203166002900490600052602060002090601f016020900481019282601f1061057657805160ff19168380011785556105a4565b828001600101855582156105a4579182015b828111156105a3578251825591602001919060010190610588565b5b5090506105b191906105b5565b5090565b6105d791905b808211156105d35760008160009055506001016105bb565b5090565b90565b600082601f8301126105eb57600080fd5b81356105fe6105f9826108e3565b6108b6565b9150818183526020840193506020810190508360005b83811015610644578135860161062a8882610663565b845260208401935060208301925050600181019050610614565b5050505092915050565b60008135905061065d816109ff565b92915050565b600082601f83011261067457600080fd5b81356106876106828261090b565b6108b6565b915080825260208301602083018583830111156106a357600080fd5b6106ae8382846109ac565b50505092915050565b6000602082840312156106c957600080fd5b60006106d78482850161064e565b91505092915050565b600080600080608085870312156106f657600080fd5b60006107048782880161064e565b945050602085013567ffffffffffffffff81111561072157600080fd5b61072d878288016105da565b935050604085013567ffffffffffffffff81111561074a57600080fd5b610756878288016105da565b925050606085013567ffffffffffffffff81111561077357600080fd5b61077f878288016105da565b91505092959194509250565b60006107978383610823565b905092915050565b60006107aa82610947565b6107b4818561096a565b9350836020820285016107c685610937565b8060005b8581101561080257848403895281516107e3858261078b565b94506107ee8361095d565b925060208a019950506001810190506107ca565b50829750879550505050505092915050565b61081d8161098c565b82525050565b600061082e82610952565b610838818561097b565b93506108488185602086016109bb565b610851816109ee565b840191505092915050565b610865816109a2565b82525050565b60006020820190508181036000830152610885818461079f565b905092915050565b60006040820190506108a2600083018561085c565b6108af6020830184610814565b9392505050565b6000604051905081810181811067ffffffffffffffff821117156108d957600080fd5b8060405250919050565b600067ffffffffffffffff8211156108fa57600080fd5b602082029050602081019050919050565b600067ffffffffffffffff82111561092257600080fd5b601f19601f8301169050602081019050919050565b6000819050602082019050919050565b600081519050919050565b600081519050919050565b6000602082019050919050565b600082825260208201905092915050565b600082825260208201905092915050565b60008115159050919050565b6000819050919050565b6000819050919050565b82818337600083830152505050565b60005b838110156109d95780820151818401526020810190506109be565b838111156109e8576000848401525b50505050565b6000601f19601f8301169050919050565b610a0881610998565b8114610a1357600080fd5b5056fea365627a7a723158209cc10f858993c146ff2e2d7bce658d3d7b1065427a1a888600d4082349def76b6c6578706572696d656e74616cf564736f6c63430005100040",
  "source": "// SPDX-License-Identifier: MIT\r\npragma solidity >=0.5.0 <=0.8.4;\r\npragma experimental ABIEncoderV2;\r\n\r\ncontract Notepad {\r\n    struct note {\r\n        string title;\r\n        string content;\r\n        string colour;\r\n    }\r\n\r\n    struct accountData {\r\n        uint numberOfNotes;\r\n        mapping (uint=>note) notes;\r\n        bool exists;\r\n    }\r\n\r\n    mapping(bytes32 => accountData) public accounts;\r\n\r\n    function fetch(bytes32 id) public view returns (string[] memory) {\r\n        string[] memory temp = new string[](accounts[id].numberOfNotes*3);\r\n        uint j=0;\r\n        for(uint i=0; i<accounts[id].numberOfNotes; i++){\r\n            temp[j]=(accounts[id].notes[i].title);\r\n            j+=1;\r\n            temp[j]=(accounts[id].notes[i].content);\r\n            j+=1;\r\n            temp[j]=(accounts[id].notes[i].colour);\r\n            j+=1;\r\n        }\r\n        return temp;\r\n    }\r\n\r\n    function update (\r\n        bytes32 id,\r\n        string[] memory title,\r\n        string[] memory content,\r\n        string[] memory colour\r\n    ) public{\r\n        for(uint i=0; i<title.length; i++){\r\n            accounts[id].notes[i] = note(title[i], content[i], colour[i]);\r\n        }\r\n        accounts[id].numberOfNotes = title.length;\r\n    }\r\n}\r\n",
  "sourcePath": "D:/personal/Notepad/contracts/Notepad.sol",
  "compiler": {
    "name": "solc",
    "version": "0.5.16+commit.9c3226ce.Emscripten.clang"
  },
  "schemaVersion": "3.4.1",
  "updatedAt": "2021-07-03T11:45:54.026Z",
  "devdoc": {
    "methods": {}
  },
  "userdoc": {
    "methods": {}
  }
}