{
  "contractName": "Notepad",
  "abi": [
    {
      "constant": true,
      "inputs": [
        {
          "internalType": "bytes32",
          "name": "",
          "type": "bytes32"
        }
      ],
      "name": "accounts",
      "outputs": [
        {
          "internalType": "uint256",
          "name": "numberOfNotes",
          "type": "uint256"
        },
        {
          "internalType": "bool",
          "name": "exists",
          "type": "bool"
        }
      ],
      "payable": false,
      "stateMutability": "view",
      "type": "function"
    },
    {
      "constant": true,
      "inputs": [
        {
          "internalType": "bytes32",
          "name": "id",
          "type": "bytes32"
        }
      ],
      "name": "fetch",
      "outputs": [
        {
          "internalType": "string[]",
          "name": "",
          "type": "string[]"
        }
      ],
      "payable": false,
      "stateMutability": "view",
      "type": "function"
    },
    {
      "constant": false,
      "inputs": [
        {
          "internalType": "bytes32",
          "name": "id",
          "type": "bytes32"
        },
        {
          "internalType": "string[]",
          "name": "title",
          "type": "string[]"
        },
        {
          "internalType": "string[]",
          "name": "content",
          "type": "string[]"
        }
      ],
      "name": "update",
      "outputs": [],
      "payable": false,
      "stateMutability": "nonpayable",
      "type": "function"
    }
  ],
  "bytecode": "0x608060405234801561001057600080fd5b50610917806100206000396000f3fe608060405234801561001057600080fd5b50600436106100415760003560e01c80630525900c14610046578063b61771e514610062578063bc529c4314610092575b600080fd5b610060600480360361005b91908101906105ca565b6100c3565b005b61007c600480360361007791908101906105a1565b61019e565b6040516100899190610729565b60405180910390f35b6100ac60048036036100a791908101906105a1565b6103ee565b6040516100ba92919061074b565b60405180910390f35b60008090505b825181101561017d5760405180604001604052808483815181106100e957fe5b6020026020010151815260200183838151811061010257fe5b60200260200101518152506000808681526020019081526020016000206001016000838152602001908152602001600020600082015181600001908051906020019061014f92919061041f565b50602082015181600101908051906020019061016c92919061041f565b5090505080806001019150506100c9565b50815160008085815260200190815260200160002060000181905550505050565b606080600260008085815260200190815260200160002060000154026040519080825280602002602001820160405280156101ed57816020015b60608152602001906001900390816101d85790505b509050600080905060008090505b600080868152602001908152602001600020600001548110156103e35760008086815260200190815260200160002060010160008281526020019081526020016000206000018054600181600116156101000203166002900480601f0160208091040260200160405190810160405280929190818152602001828054600181600116156101000203166002900480156102d55780601f106102aa576101008083540402835291602001916102d5565b820191906000526020600020905b8154815290600101906020018083116102b857829003601f168201915b50505050508383815181106102e657fe5b602002602001018190525060018201915060008086815260200190815260200160002060010160008281526020019081526020016000206001018054600181600116156101000203166002900480601f0160208091040260200160405190810160405280929190818152602001828054600181600116156101000203166002900480156103b45780601f10610389576101008083540402835291602001916103b4565b820191906000526020600020905b81548152906001019060200180831161039757829003601f168201915b50505050508383815181106103c557fe5b602002602001018190525060018201915080806001019150506101fb565b508192505050919050565b60006020528060005260406000206000915090508060000154908060020160009054906101000a900460ff16905082565b828054600181600116156101000203166002900490600052602060002090601f016020900481019282601f1061046057805160ff191683800117855561048e565b8280016001018555821561048e579182015b8281111561048d578251825591602001919060010190610472565b5b50905061049b919061049f565b5090565b6104c191905b808211156104bd5760008160009055506001016104a5565b5090565b90565b600082601f8301126104d557600080fd5b81356104e86104e3826107a1565b610774565b9150818183526020840193506020810190508360005b8381101561052e5781358601610514888261054d565b8452602084019350602083019250506001810190506104fe565b5050505092915050565b600081359050610547816108bd565b92915050565b600082601f83011261055e57600080fd5b813561057161056c826107c9565b610774565b9150808252602083016020830185838301111561058d57600080fd5b61059883828461086a565b50505092915050565b6000602082840312156105b357600080fd5b60006105c184828501610538565b91505092915050565b6000806000606084860312156105df57600080fd5b60006105ed86828701610538565b935050602084013567ffffffffffffffff81111561060a57600080fd5b610616868287016104c4565b925050604084013567ffffffffffffffff81111561063357600080fd5b61063f868287016104c4565b9150509250925092565b600061065583836106e1565b905092915050565b600061066882610805565b6106728185610828565b935083602082028501610684856107f5565b8060005b858110156106c057848403895281516106a18582610649565b94506106ac8361081b565b925060208a01995050600181019050610688565b50829750879550505050505092915050565b6106db8161084a565b82525050565b60006106ec82610810565b6106f68185610839565b9350610706818560208601610879565b61070f816108ac565b840191505092915050565b61072381610860565b82525050565b60006020820190508181036000830152610743818461065d565b905092915050565b6000604082019050610760600083018561071a565b61076d60208301846106d2565b9392505050565b6000604051905081810181811067ffffffffffffffff8211171561079757600080fd5b8060405250919050565b600067ffffffffffffffff8211156107b857600080fd5b602082029050602081019050919050565b600067ffffffffffffffff8211156107e057600080fd5b601f19601f8301169050602081019050919050565b6000819050602082019050919050565b600081519050919050565b600081519050919050565b6000602082019050919050565b600082825260208201905092915050565b600082825260208201905092915050565b60008115159050919050565b6000819050919050565b6000819050919050565b82818337600083830152505050565b60005b8381101561089757808201518184015260208101905061087c565b838111156108a6576000848401525b50505050565b6000601f19601f8301169050919050565b6108c681610856565b81146108d157600080fd5b5056fea365627a7a7231582085c58369415702037804a7c7706e3a2ee2917e4d1133cb350a6f5ab8fbcc92816c6578706572696d656e74616cf564736f6c63430005100040",
  "source": "// SPDX-License-Identifier: MIT\r\npragma solidity >=0.5.0 <=0.8.4;\r\npragma experimental ABIEncoderV2;\r\n\r\ncontract Notepad {\r\n    struct note {\r\n        string title;\r\n        string content;\r\n    }\r\n\r\n    struct accountData {\r\n        uint256 numberOfNotes;\r\n        mapping(uint256 => note) notes;\r\n        bool exists;\r\n    }\r\n\r\n    mapping(bytes32 => accountData) public accounts;\r\n\r\n    function fetch(bytes32 id) public view returns (string[] memory) {\r\n        string[] memory temp = new string[](accounts[id].numberOfNotes * 2);\r\n        uint256 j = 0;\r\n        for (uint256 i = 0; i < accounts[id].numberOfNotes; i++) {\r\n            temp[j] = (accounts[id].notes[i].title);\r\n            j += 1;\r\n            temp[j] = (accounts[id].notes[i].content);\r\n            j += 1;\r\n        }\r\n        return temp;\r\n    }\r\n\r\n    function update(\r\n        bytes32 id,\r\n        string[] memory title,\r\n        string[] memory content\r\n    ) public {\r\n        for (uint256 i = 0; i < title.length; i++) {\r\n            accounts[id].notes[i] = note(title[i], content[i]);\r\n        }\r\n        accounts[id].numberOfNotes = title.length;\r\n    }\r\n}\r\n",
  "sourcePath": "D:/personal/Notepad/contracts/Notepad.sol",
  "compiler": {
    "name": "solc",
    "version": "0.5.16+commit.9c3226ce.Emscripten.clang"
  },
  "schemaVersion": "3.4.1",
  "updatedAt": "2021-07-01T08:31:48.600Z",
  "devdoc": {
    "methods": {}
  },
  "userdoc": {
    "methods": {}
  }
}